{
  "_format": "hh-sol-artifact-1",
  "contractName": "IDOSwap",
  "sourceName": "contracts/IDOswap.sol",
  "abi": [
    {
      "inputs": [
        {
          "internalType": "contract IERC20",
          "name": "_busd",
          "type": "address"
        },
        {
          "internalType": "contract IERC20",
          "name": "_usdt",
          "type": "address"
        },
        {
          "internalType": "contract IERC20",
          "name": "_iqt",
          "type": "address"
        },
        {
          "internalType": "contract IERC20",
          "name": "_cyn",
          "type": "address"
        },
        {
          "internalType": "address",
          "name": "_cynOwner",
          "type": "address"
        }
      ],
      "stateMutability": "nonpayable",
      "type": "constructor"
    },
    {
      "anonymous": false,
      "inputs": [
        {
          "indexed": true,
          "internalType": "address",
          "name": "previousOwner",
          "type": "address"
        },
        {
          "indexed": true,
          "internalType": "address",
          "name": "newOwner",
          "type": "address"
        }
      ],
      "name": "OwnershipTransferred",
      "type": "event"
    },
    {
      "inputs": [],
      "name": "baseBusdBalance",
      "outputs": [
        {
          "internalType": "uint256",
          "name": "",
          "type": "uint256"
        }
      ],
      "stateMutability": "view",
      "type": "function"
    },
    {
      "inputs": [],
      "name": "baseCynSwapAmount",
      "outputs": [
        {
          "internalType": "uint256",
          "name": "",
          "type": "uint256"
        }
      ],
      "stateMutability": "view",
      "type": "function"
    },
    {
      "inputs": [],
      "name": "baseIqtBalance",
      "outputs": [
        {
          "internalType": "uint256",
          "name": "",
          "type": "uint256"
        }
      ],
      "stateMutability": "view",
      "type": "function"
    },
    {
      "inputs": [],
      "name": "baseUsdtBalance",
      "outputs": [
        {
          "internalType": "uint256",
          "name": "",
          "type": "uint256"
        }
      ],
      "stateMutability": "view",
      "type": "function"
    },
    {
      "inputs": [],
      "name": "busd",
      "outputs": [
        {
          "internalType": "contract IERC20",
          "name": "",
          "type": "address"
        }
      ],
      "stateMutability": "view",
      "type": "function"
    },
    {
      "inputs": [],
      "name": "cyn",
      "outputs": [
        {
          "internalType": "contract IERC20",
          "name": "",
          "type": "address"
        }
      ],
      "stateMutability": "view",
      "type": "function"
    },
    {
      "inputs": [],
      "name": "cynOwner",
      "outputs": [
        {
          "internalType": "address",
          "name": "",
          "type": "address"
        }
      ],
      "stateMutability": "view",
      "type": "function"
    },
    {
      "inputs": [],
      "name": "getBalances",
      "outputs": [
        {
          "internalType": "uint256",
          "name": "_busdBal",
          "type": "uint256"
        },
        {
          "internalType": "uint256",
          "name": "_iqtBal",
          "type": "uint256"
        },
        {
          "internalType": "uint256",
          "name": "_usdtBal",
          "type": "uint256"
        }
      ],
      "stateMutability": "view",
      "type": "function"
    },
    {
      "inputs": [],
      "name": "getSwapInfo",
      "outputs": [
        {
          "internalType": "uint256",
          "name": "_totalSwappedCynAmount",
          "type": "uint256"
        },
        {
          "internalType": "uint256",
          "name": "_totalBusdRevenue",
          "type": "uint256"
        },
        {
          "internalType": "uint256",
          "name": "_totalIqtRevenue",
          "type": "uint256"
        },
        {
          "internalType": "uint256",
          "name": "_totalUsdtRevenue",
          "type": "uint256"
        }
      ],
      "stateMutability": "view",
      "type": "function"
    },
    {
      "inputs": [],
      "name": "iqt",
      "outputs": [
        {
          "internalType": "contract IERC20",
          "name": "",
          "type": "address"
        }
      ],
      "stateMutability": "view",
      "type": "function"
    },
    {
      "inputs": [],
      "name": "owner",
      "outputs": [
        {
          "internalType": "address",
          "name": "",
          "type": "address"
        }
      ],
      "stateMutability": "view",
      "type": "function"
    },
    {
      "inputs": [],
      "name": "renounceOwnership",
      "outputs": [],
      "stateMutability": "nonpayable",
      "type": "function"
    },
    {
      "inputs": [
        {
          "internalType": "uint256",
          "name": "_busdAmountIn",
          "type": "uint256"
        }
      ],
      "name": "swapBusdAndIqtForCyn",
      "outputs": [
        {
          "internalType": "bool",
          "name": "",
          "type": "bool"
        }
      ],
      "stateMutability": "nonpayable",
      "type": "function"
    },
    {
      "inputs": [
        {
          "internalType": "uint256",
          "name": "_usdtAmountIn",
          "type": "uint256"
        }
      ],
      "name": "swapUsdtAndIqtForCyn",
      "outputs": [
        {
          "internalType": "bool",
          "name": "",
          "type": "bool"
        }
      ],
      "stateMutability": "nonpayable",
      "type": "function"
    },
    {
      "inputs": [],
      "name": "totalBusdRevenue",
      "outputs": [
        {
          "internalType": "uint256",
          "name": "",
          "type": "uint256"
        }
      ],
      "stateMutability": "view",
      "type": "function"
    },
    {
      "inputs": [],
      "name": "totalIqtRevenue",
      "outputs": [
        {
          "internalType": "uint256",
          "name": "",
          "type": "uint256"
        }
      ],
      "stateMutability": "view",
      "type": "function"
    },
    {
      "inputs": [],
      "name": "totalSwappedCynAmount",
      "outputs": [
        {
          "internalType": "uint256",
          "name": "",
          "type": "uint256"
        }
      ],
      "stateMutability": "view",
      "type": "function"
    },
    {
      "inputs": [],
      "name": "totalUsdtRevenue",
      "outputs": [
        {
          "internalType": "uint256",
          "name": "",
          "type": "uint256"
        }
      ],
      "stateMutability": "view",
      "type": "function"
    },
    {
      "inputs": [
        {
          "internalType": "address",
          "name": "newOwner",
          "type": "address"
        }
      ],
      "name": "transferOwnership",
      "outputs": [],
      "stateMutability": "nonpayable",
      "type": "function"
    },
    {
      "inputs": [],
      "name": "usdt",
      "outputs": [
        {
          "internalType": "contract IERC20",
          "name": "",
          "type": "address"
        }
      ],
      "stateMutability": "view",
      "type": "function"
    },
    {
      "inputs": [
        {
          "internalType": "address",
          "name": "",
          "type": "address"
        }
      ],
      "name": "users",
      "outputs": [
        {
          "internalType": "uint256",
          "name": "costedBusdAmount",
          "type": "uint256"
        },
        {
          "internalType": "uint256",
          "name": "costedUsdtAmount",
          "type": "uint256"
        },
        {
          "internalType": "uint256",
          "name": "costedIqtAmount",
          "type": "uint256"
        },
        {
          "internalType": "uint256",
          "name": "getCynAmount",
          "type": "uint256"
        }
      ],
      "stateMutability": "view",
      "type": "function"
    },
    {
      "inputs": [
        {
          "internalType": "address",
          "name": "_tokenAddress",
          "type": "address"
        }
      ],
      "name": "withdrawalToken",
      "outputs": [
        {
          "internalType": "bool",
          "name": "",
          "type": "bool"
        }
      ],
      "stateMutability": "nonpayable",
      "type": "function"
    }
  ],
  "bytecode": "0x6080604052600060055560006006556000600755600060085534801561002457600080fd5b50604051611ef5380380611ef5833981810160405260a081101561004757600080fd5b50805160208201516040830151606084015160809094015192939192909190600061007061012e565b600080546001600160a01b0319166001600160a01b0383169081178255604051929350917f8be0079c531659141344cd1fd0a4f28419497f9722a3daafe3b4186f6b6457e0908290a350600980546001600160a01b03199081166001600160a01b0397881617909155600a80548216958716959095178555600b8054821694871694909417909355600c8054841692861692909217909155600d80549092169316929092179091556001805560028190556003556064600455610132565b3390565b611db4806101416000396000f3fe608060405234801561001057600080fd5b50600436106101415760003560e01c8063768ae30d116100b8578063ae0694051161007c578063ae0694051461029f578063b561305a146102a7578063df8a6835146102af578063e54fdd00146102b7578063f2fde38b146102bf578063fcaa9923146102e557610141565b8063768ae30d146102595780637a60108614610261578063818752ef146102695780638da5cb5b14610271578063a87430ba1461027957610141565b806331416ee81161010a57806331416ee8146102125780633c3a41621461021a5780633ca5b23414610222578063505fa7331461022a57806368da192914610232578063715018a61461024f57610141565b8062113e0814610146578063062e43a11461016c5780631b26c80d146101a65780632a5dde44146101d45780632f48ab7d146101ee575b600080fd5b61014e610302565b60408051938452602084019290925282820152519081900360600190f35b6101926004803603602081101561018257600080fd5b50356001600160a01b031661047b565b604080519115158252519081900360200190f35b6101ae610602565b604080519485526020850193909352838301919091526060830152519081900360800190f35b6101dc610614565b60408051918252519081900360200190f35b6101f661061a565b604080516001600160a01b039092168252519081900360200190f35b6101f6610629565b6101dc610638565b6101f661063e565b6101f661064d565b6101926004803603602081101561024857600080fd5b503561065c565b610257610e80565b005b6101dc610f34565b6101f6610f3a565b6101dc610f49565b6101f6610f4f565b6101ae6004803603602081101561028f57600080fd5b50356001600160a01b0316610f5e565b6101dc610f85565b6101dc610f8b565b6101dc610f91565b6101dc610f97565b610257600480360360208110156102d557600080fd5b50356001600160a01b0316610f9d565b610192600480360360208110156102fb57600080fd5b50356110a7565b600954604080516370a0823160e01b81523060048201529051600092839283926001600160a01b03909216916370a0823191602480820192602092909190829003018186803b15801561035457600080fd5b505afa158015610368573d6000803e3d6000fd5b505050506040513d602081101561037e57600080fd5b5051600b54604080516370a0823160e01b815230600482015290519295506001600160a01b03909116916370a0823191602480820192602092909190829003018186803b1580156103ce57600080fd5b505afa1580156103e2573d6000803e3d6000fd5b505050506040513d60208110156103f857600080fd5b5051600a54604080516370a0823160e01b815230600482015290519294506001600160a01b03909116916370a0823191602480820192602092909190829003018186803b15801561044857600080fd5b505afa15801561045c573d6000803e3d6000fd5b505050506040513d602081101561047257600080fd5b50519050909192565b60006104856116e6565b6000546001600160a01b039081169116146104e7576040805162461bcd60e51b815260206004820181905260248201527f4f776e61626c653a2063616c6c6572206973206e6f7420746865206f776e6572604482015290519081900360640190fd5b8160006104f2610f4f565b9050816001600160a01b031663a9059cbb82846001600160a01b03166370a08231306040518263ffffffff1660e01b815260040180826001600160a01b0316815260200191505060206040518083038186803b15801561055157600080fd5b505afa158015610565573d6000803e3d6000fd5b505050506040513d602081101561057b57600080fd5b5051604080516001600160e01b031960e086901b1681526001600160a01b03909316600484015260248301919091525160448083019260209291908290030181600087803b1580156105cc57600080fd5b505af11580156105e0573d6000803e3d6000fd5b505050506040513d60208110156105f657600080fd5b50600195945050505050565b60055460065460075460085490919293565b60065481565b600a546001600160a01b031681565b600c546001600160a01b031681565b60085481565b6009546001600160a01b031681565b600b546001600160a01b031681565b600154600b54600091906001600160a01b03166370a0823161067c6116e6565b6040518263ffffffff1660e01b815260040180826001600160a01b0316815260200191505060206040518083038186803b1580156106b957600080fd5b505afa1580156106cd573d6000803e3d6000fd5b505050506040513d60208110156106e357600080fd5b50511015610730576040805162461bcd60e51b81526020600482015260156024820152741254550818985b185b98d9481d1bdbc81cdb585b1b605a1b604482015290519081900360640190fd5b6009546002546001600160a01b03909116908381836370a082316107526116e6565b6040518263ffffffff1660e01b815260040180826001600160a01b0316815260200191505060206040518083038186803b15801561078f57600080fd5b505afa1580156107a3573d6000803e3d6000fd5b505050506040513d60208110156107b957600080fd5b505110801590610848575080836001600160a01b03166370a082316107dc6116e6565b6040518263ffffffff1660e01b815260040180826001600160a01b0316815260200191505060206040518083038186803b15801561081957600080fd5b505afa15801561082d573d6000803e3d6000fd5b505050506040513d602081101561084357600080fd5b505110155b61088d576040805162461bcd60e51b815260206004820152601160248201527010985b185b98d9481d1bdbc81cdb585b1b607a1b604482015290519081900360640190fd5b6002548510156108d9576040805162461bcd60e51b8152602060048201526012602482015271105b5bdd5b9d125b881d1bdbc81cdb585b1b60721b604482015290519081900360640190fd5b60006108f0600254876116ea90919063ffffffff16565b905060006109098260025461173590919063ffffffff16565b905060006109228360015461173590919063ffffffff16565b9050600061093b8460045461173590919063ffffffff16565b60095490915083906001600160a01b031663dd62ed3e6109596116e6565b306040518363ffffffff1660e01b815260040180836001600160a01b03168152602001826001600160a01b031681526020019250505060206040518083038186803b1580156109a757600080fd5b505afa1580156109bb573d6000803e3d6000fd5b505050506040513d60208110156109d157600080fd5b50511015610a26576040805162461bcd60e51b815260206004820152601c60248201527f6275736420616c6c6f77616e6365206973206e6f7420656e6f75676800000000604482015290519081900360640190fd5b600b5482906001600160a01b031663dd62ed3e610a416116e6565b306040518363ffffffff1660e01b815260040180836001600160a01b03168152602001826001600160a01b031681526020019250505060206040518083038186803b158015610a8f57600080fd5b505afa158015610aa3573d6000803e3d6000fd5b505050506040513d6020811015610ab957600080fd5b50511015610b0e576040805162461bcd60e51b815260206004820152601b60248201527f69717420616c6c6f77616e6365206973206e6f7420656e6f7567680000000000604482015290519081900360640190fd5b60408051808201909152600981526831bcb727bbb732b91d60b91b6020820152600d54610b4491906001600160a01b031661178e565b610be7604051806060016040528060268152602001611d2f60269139600c54600d5460408051636eb1769f60e11b81526001600160a01b0392831660048201523060248201529051919092169163dd62ed3e916044808301926020929190829003018186803b158015610bb657600080fd5b505afa158015610bca573d6000803e3d6000fd5b505050506040513d6020811015610be057600080fd5b5051611849565b610c1a604051806040016040528060118152602001703932b0b623b2ba21bcb720b6b7bab73a1d60791b81525082611849565b604080518082018252601881527f63796e2e62616c616e63654f662863796e4f776e6572293a0000000000000000602080830191909152600c54600d5484516370a0823160e01b81526001600160a01b0391821660048201529451610c9e9591909216926370a0823192602480840193829003018186803b158015610bb657600080fd5b600c54600d5460408051636eb1769f60e11b81526001600160a01b03928316600482015230602482015290518493929092169163dd62ed3e91604480820192602092909190829003018186803b158015610cf757600080fd5b505afa158015610d0b573d6000803e3d6000fd5b505050506040513d6020811015610d2157600080fd5b50511015610d76576040805162461bcd60e51b815260206004820152601b60248201527f63796e20616c6c6f77616e6365206973206e6f7420656e6f7567680000000000604482015290519081900360640190fd5b6000600e6000610d846116e6565b6001600160a01b0316815260208101919091526040016000208054909150610dac90856118f7565b81556002810154610dbd90846118f7565b60028201556003810154610dd190836118f7565b6003820155600554610de390836118f7565b600555600754610df390846118f7565b600755600654610e0390856118f7565b600655610e25610e116116e6565b6009546001600160a01b0316903087611951565b610e44610e306116e6565b600b546001600160a01b0316903086611951565b600d54610e70906001600160a01b0316610e5c6116e6565b600c546001600160a01b0316919085611951565b5060019998505050505050505050565b610e886116e6565b6000546001600160a01b03908116911614610eea576040805162461bcd60e51b815260206004820181905260248201527f4f776e61626c653a2063616c6c6572206973206e6f7420746865206f776e6572604482015290519081900360640190fd5b600080546040516001600160a01b03909116907f8be0079c531659141344cd1fd0a4f28419497f9722a3daafe3b4186f6b6457e0908390a3600080546001600160a01b0319169055565b60075481565b600d546001600160a01b031681565b60015481565b6000546001600160a01b031690565b600e6020526000908152604090208054600182015460028301546003909301549192909184565b60055481565b60045481565b60025481565b60035481565b610fa56116e6565b6000546001600160a01b03908116911614611007576040805162461bcd60e51b815260206004820181905260248201527f4f776e61626c653a2063616c6c6572206973206e6f7420746865206f776e6572604482015290519081900360640190fd5b6001600160a01b03811661104c5760405162461bcd60e51b8152600401808060200182810382526026815260200180611ce86026913960400191505060405180910390fd5b600080546040516001600160a01b03808516939216917f8be0079c531659141344cd1fd0a4f28419497f9722a3daafe3b4186f6b6457e091a3600080546001600160a01b0319166001600160a01b0392909216919091179055565b600154600b54600091906001600160a01b03166370a082316110c76116e6565b6040518263ffffffff1660e01b815260040180826001600160a01b0316815260200191505060206040518083038186803b15801561110457600080fd5b505afa158015611118573d6000803e3d6000fd5b505050506040513d602081101561112e57600080fd5b5051101561117b576040805162461bcd60e51b81526020600482015260156024820152741254550818985b185b98d9481d1bdbc81cdb585b1b605a1b604482015290519081900360640190fd5b600a546003546001600160a01b03909116908381836370a0823161119d6116e6565b6040518263ffffffff1660e01b815260040180826001600160a01b0316815260200191505060206040518083038186803b1580156111da57600080fd5b505afa1580156111ee573d6000803e3d6000fd5b505050506040513d602081101561120457600080fd5b505110801590611293575080836001600160a01b03166370a082316112276116e6565b6040518263ffffffff1660e01b815260040180826001600160a01b0316815260200191505060206040518083038186803b15801561126457600080fd5b505afa158015611278573d6000803e3d6000fd5b505050506040513d602081101561128e57600080fd5b505110155b6112d8576040805162461bcd60e51b815260206004820152601160248201527010985b185b98d9481d1bdbc81cdb585b1b607a1b604482015290519081900360640190fd5b600354851015611324576040805162461bcd60e51b8152602060048201526012602482015271105b5bdd5b9d125b881d1bdbc81cdb585b1b60721b604482015290519081900360640190fd5b600061133b600354876116ea90919063ffffffff16565b905060006113548260035461173590919063ffffffff16565b9050600061136d8360015461173590919063ffffffff16565b905060006113868460045461173590919063ffffffff16565b600a5490915083906001600160a01b031663dd62ed3e6113a46116e6565b306040518363ffffffff1660e01b815260040180836001600160a01b03168152602001826001600160a01b031681526020019250505060206040518083038186803b1580156113f257600080fd5b505afa158015611406573d6000803e3d6000fd5b505050506040513d602081101561141c57600080fd5b50511015611471576040805162461bcd60e51b815260206004820152601c60248201527f7573647420616c6c6f77616e6365206973206e6f7420656e6f75676800000000604482015290519081900360640190fd5b600b5482906001600160a01b031663dd62ed3e61148c6116e6565b306040518363ffffffff1660e01b815260040180836001600160a01b03168152602001826001600160a01b031681526020019250505060206040518083038186803b1580156114da57600080fd5b505afa1580156114ee573d6000803e3d6000fd5b505050506040513d602081101561150457600080fd5b50511015611559576040805162461bcd60e51b815260206004820152601b60248201527f69717420616c6c6f77616e6365206973206e6f7420656e6f7567680000000000604482015290519081900360640190fd5b600c54600d5460408051636eb1769f60e11b81526001600160a01b03928316600482015230602482015290518493929092169163dd62ed3e91604480820192602092909190829003018186803b1580156115b257600080fd5b505afa1580156115c6573d6000803e3d6000fd5b505050506040513d60208110156115dc57600080fd5b50511015611631576040805162461bcd60e51b815260206004820152601b60248201527f63796e20616c6c6f77616e6365206973206e6f7420656e6f7567680000000000604482015290519081900360640190fd5b6000600e600061163f6116e6565b6001600160a01b031681526020810191909152604001600020600181015490915061166a90856118f7565b6001820155600281015461167e90846118f7565b6002820155600381015461169290836118f7565b60038201556005546116a490836118f7565b6005556007546116b490846118f7565b6007556008546116c490856118f7565b600855610e256116d26116e6565b600a546001600160a01b0316903087611951565b3390565b600061172c83836040518060400160405280601a81526020017f536166654d6174683a206469766973696f6e206279207a65726f0000000000008152506119b1565b90505b92915050565b6000826117445750600061172f565b8282028284828161175157fe5b041461172c5760405162461bcd60e51b8152600401808060200182810382526021815260200180611d0e6021913960400191505060405180910390fd5b61184582826040516024018080602001836001600160a01b03168152602001828103825284818151815260200191508051906020019080838360005b838110156117e25781810151838201526020016117ca565b50505050905090810190601f16801561180f5780820380516001836020036101000a031916815260200191505b5060408051601f198184030181529190526020810180516001600160e01b031663319af33360e01b1790529350611a5392505050565b5050565b61184582826040516024018080602001838152602001828103825284818151815260200191508051906020019080838360005b8381101561189457818101518382015260200161187c565b50505050905090810190601f1680156118c15780820380516001836020036101000a031916815260200191505b5060408051601f198184030181529190526020810180516001600160e01b03166309710a9d60e41b1790529350611a5392505050565b60008282018381101561172c576040805162461bcd60e51b815260206004820152601b60248201527f536166654d6174683a206164646974696f6e206f766572666c6f770000000000604482015290519081900360640190fd5b604080516001600160a01b0380861660248301528416604482015260648082018490528251808303909101815260849091019091526020810180516001600160e01b03166323b872dd60e01b1790526119ab908590611a74565b50505050565b60008183611a3d5760405162461bcd60e51b81526004018080602001828103825283818151815260200191508051906020019080838360005b83811015611a025781810151838201526020016119ea565b50505050905090810190601f168015611a2f5780820380516001836020036101000a031916815260200191505b509250505060405180910390fd5b506000838581611a4957fe5b0495945050505050565b80516a636f6e736f6c652e6c6f67602083016000808483855afa5050505050565b6060611ac9826040518060400160405280602081526020017f5361666545524332303a206c6f772d6c6576656c2063616c6c206661696c6564815250856001600160a01b0316611b2a9092919063ffffffff16565b805190915015611b2557808060200190516020811015611ae857600080fd5b5051611b255760405162461bcd60e51b815260040180806020018281038252602a815260200180611d55602a913960400191505060405180910390fd5b505050565b6060611b398484600085611b41565b949350505050565b6060611b4c85611cae565b611b9d576040805162461bcd60e51b815260206004820152601d60248201527f416464726573733a2063616c6c20746f206e6f6e2d636f6e7472616374000000604482015290519081900360640190fd5b60006060866001600160a01b031685876040518082805190602001908083835b60208310611bdc5780518252601f199092019160209182019101611bbd565b6001836020036101000a03801982511681845116808217855250505050505090500191505060006040518083038185875af1925050503d8060008114611c3e576040519150601f19603f3d011682016040523d82523d6000602084013e611c43565b606091505b50915091508115611c57579150611b399050565b805115611c675780518082602001fd5b60405162461bcd60e51b8152602060048201818152865160248401528651879391928392604401919085019080838360008315611a025781810151838201526020016119ea565b6000813f7fc5d2460186f7233c927e7db2dcc703c0e500b653ca82273b7bfad8045d85a470818114801590611b3957505015159291505056fe4f776e61626c653a206e6577206f776e657220697320746865207a65726f2061646472657373536166654d6174683a206d756c7469706c69636174696f6e206f766572666c6f7763796e2e616c6c6f77616e63652863796e4f776e65722c61646472657373287468697329293a5361666545524332303a204552433230206f7065726174696f6e20646964206e6f742073756363656564a2646970667358221220b3e1f76181e562eff93f5f5934b9741cd3c56525a45ee527d2b9b81efe76dcb364736f6c634300060c0033",
  "linkReferences": {},
  "deployedLinkReferences": {}
}